:1000000008308A00002800000A108A100A118207AE
:1000100028340C3401340634C8326C366F10653B1A
:10002000653979316F327900311C4322D4180001CF
:10003000CC376132E3326C360001C432F3346737B7
:1000400020217910C83ACC300000D732E933683A21
:10005000BA2BE134F434EE332E172E00C83ACC30EC
:100060000001D732E933683A3A102533A0256700FA
:10007000C83ACC300001D732E933683A3A10253318
:10008000A0256700C83ACC300001D732E933683A7E
:100090003A102533A0256700C83ACC3000018318F8
:1000A0005428553084008313F701F801F901FA014F
:1000B000D501D601D701D801540853045204510484
:1000C000031992282030D9000310CD0DCE0DCF0D8D
:1000D000D00DD50DD60DD70DD80D54085802031DDF
:1000E0007B2853085702031D7B2852085602031D24
:1000F0007B2851085502031C8C285108D502520850
:10010000031C520FD6025308031C530FD702540886
:10011000031C540FD8020314F70DF80DF90DFA0D56
:10012000D90B642855088000840A56088000840A88
:1001300057088000840A580880000800BF01BE01EB
:10014000BD01BC01C0014008133C031CF928051483
:100150008316051083128510831685108312C4013F
:10016000C301C201C1018316051483120518B32807
:10017000C5014508173C031CD72885148316851034
:1001800003108312C10DC20DC30DC40D851083165B
:10019000851005148312051CD5280130C1070318EA
:1001A000C20A0319C30A0319C40AC50AB928851467
:1001B0008316851080308312C30685108316851040
:1001C00083124108F7004208F8004308F900440888
:1001D000FA007708BC0778080318780FBD0779087C
:1001E0000318790FBE077A0803187A0FBF07C00AF1
:1001F000A32883103F08D0003E08CF003D08CE0062
:100200003C08CD00D401D301D2011430D1004F20DD
:100210007A08BF007908BE007808BD007708BC00E6
:100220003C08F7003D08F8003E08F9003F08FA00D6
:1002300008004E308400831300080319302902306F
:10024000F800BF30F7006400F70B2329F80B2129D1
:100250009630F700F70B2A292D296400800B1F29FF
:1002600008000830F800000087118316871100008D
:100270008312DB0D0712031C402983160716831215
:1002800003184529831607128312831687158312D4
:10029000871D4829F80B3329000087118316871121
:1002A000000007160000000087158312871D5629DD
:1002B000F8010000071A781487118316871183123A
:1002C000071283160712831208005908003A03190F
:1002D0006D29013A03198F29B229580EF700F03021
:1002E000F70577082404DA00DB0031210000580EFE
:1002F000F700F030F705770804382404DA00DB0053
:100300003121640083290000580EF700F030F70512
:100310007708FB392404DA00DB003121B229580EBA
:10032000F700F030F705770801382404DA00DB0025
:1003300031210000580EF700F030F705770801383A
:1003400004382404DA00DB0031216400A72900000E
:10035000580EF700F030F705770801382404DA006A
:10036000DB00312108008316071600008715000006
:100370008312071283160712000083128711831657
:10038000871183122008DB003121550ED7000F3072
:10039000D7055708D8005608D900652155080F39E8
:1003A000D700D8005608D90065218316071200002F
:1003B00087158312871DDA290000DE2900008316C5
:1003C00007160000831208000130D500D601B321C2
:1003D0000230CE0019210130A30008003C08A00023
:1003E0003E08A1003D08A2000B138B138B1BF529BF
:1003F0003230CE0019218316071600008715000041
:1004000083120712831607120000831287118316C6
:10041000871183122008DB003121D801D901652121
:100420000F30CE0019210130BF003F08033C031CF0
:10043000222A0330D800D90165210530CE001921C8
:10044000BF0A152A0230D800D90165210530CE0037
:10045000192183160712000087158312871D2E2A83
:100460000000322A00008316071600008312BF0125
:100470003F08033C031C472A3F080420C000D50066
:10048000D601B3210530CE001921BF0A382AE42154
:10049000C0308B048A150A123A28BC080319532A63
:1004A0000830A400542AA4018A150A123F284F08D4
:1004B000210203185E2A2108D000602A4F08D000CC
:1004C0005008013A03196E2A033A0319702A013AB7
:1004D0000319732A073A0319762A792AD2017A2A4C
:1004E0004030D2007A2A1430D2007A2A5430D20016
:1004F0007A2AD2014E0822020318812A2208D1004A
:10050000832A4E08D100013051025207D30053080C
:100510008038D400D500D601B32108004D080C3A2C
:100520000319992A063A03199B2A023A0319A82AA1
:10053000AD2AE421B22AA30A230821020318A22A21
:100540000130A3000130CE002308CF005722B22A89
:100550001030D500D601B321B22A4D08D5000130A4
:10056000D600B32108000B08BC008B1383160317B9
:100570008C170C140000000083120313BC1B8B1794
:1005800003170C087F390319072B0313BC0003174B
:100590000D080313BD0003170F080313BE003C082A
:1005A000CD008E223D0803178D0003133E0803176C
:1005B0008F0003130B08BF008B13831603178C17D0
:1005C0000C140000000083120313BF1B8B170317CA
:1005D0000C0D0E0D7F390319072B0313BC000317F5
:1005E0000D080313BD0003170F080313BE003C08DA
:1005F000CD008E223D0803178D0003133E0803171C
:100600008F008D0A03198F0A0313B32A03170313EC
:100610000800B630F700FA01F901F8013C083D0482
:100620003E043F04031D162BF701232B0310F81B78
:10063000222BBC0DBD0DBE0DBF0DFA0DF90DF80D31
:10064000F70B162BF81308003C080319E92BC80018
:1006500040080319E92BC802031C332B7F30C8075D
:100660000318E92B392B8130C802031CE92B03192D
:10067000E92B4808F700F801F901FA01C7013D0824
:10068000C600C6173E08C5003F08C4001930C800A0
:100690004308C40203185C2B0130C50203185C2B0D
:1006A000C60203185C2BC70203185C2BC70AC60AD4
:1006B000C50A4308C4078E2B4208C5020318772BCE
:1006C0000130C6020318772BC7020318772BC70A1D
:1006D000C60A4208C5074308C407031C8E2BC50A77
:1006E000031D8E2BC60A031D8E2BC70A8E2B4108B5
:1006F0008038C60203188D2B0130C70203188D2BDA
:10070000C70A41088038C6074208C507031C6B2B7F
:10071000C60A031D6B2BC70A6B2B7A14C80B912BCF
:100720009C2B0310C40DC50DC60DC70D0310FA0D8B
:10073000F90DF80DC90D482B491CA42B0310F80C1A
:10074000F90CFA0CC90CA72BF7030319E92BC91BE9
:10075000D02B0310C40DC50DC60DC70D4308C40230
:100760000318BC2B0130C5020318BC2BC6020318AA
:10077000BC2BC702031CDF2B4208C5020318C72B82
:100780000130C6020318C72BC702031CDF2B410828
:100790008038C6020318D02B0130C702031CDF2BA0
:1007A000FA0A031DDF2BF90A031DDF2BF80A031DCC
:1007B000DF2BF70A0319E92BF80CF90CFA0C3D08AA
:1007C000C8004108C806C81FE72BF817ED2BF8131F
:1007D000ED2BF701F801F901FA0108004108C80002
:1007E0004508C806C81FF92B03110310C11B0314C9
:1007F0002C2C4108C8004408C9004008C90203194C
:10080000072CC81F2C2C0308013A83002C2C450808
:10081000C9004108C9020319132CC81F2C2C030856
:10082000013A83002C2C4608C9004208C90203196A
:100830001F2CC81F2C2C0308013A83002C2C4708BE
:10084000C9004308C90203192B2CC81F2C2C03080C
:10085000013A83002C2C03108A150A124B290B082D
:10086000C1008B13831603178C170C1400000000B3
:1008700083120313C11B8B170318662C03170C0874
:100880007F390313C10003170D080313C2000317B8
:100890000F080313C3004108CD008E22420803173E
:1008A0008D000313430803178F0003130B08C400C4
:1008B0008B13831603178C170C140000000083128F
:1008C0000313C41B8B17C00B662C852C03170C0D50
:1008D0000E0D7F390313C10003170D080313C20067
:1008E00003170F080313C3004108CD008E224208EE
:1008F00003178D000313430803178F008D0A031994
:100900008F0A03100313C00B2F2C08004D08031986
:10091000F62CD50051080319F62CD5070318972C8F
:100920007F30D502031CF62C0319F62C9B2C81304A
:10093000D5070318F62C5508F700F801F901FA015C
:100940004E08D900D9174F08D8005008D7001830E2
:10095000D500D601571CC42C5408FA07031CB62C2A
:10096000F90A031DB62CF80A0319D6175308F9071C
:10097000031CBD2CF80A0319D6175208CF00CF1755
:100980004F08F8070318D617D60DF80CF90CFA0C17
:10099000D90CD80CD70C0310D50BA92C0130F707B4
:1009A0000318F62CF81BDB2CD90DFA0DF90DF80DF8
:1009B000F7030319F62CD91FEC2CFA0A031DEC2CB3
:1009C000F90A031DEC2CF80A031DEC2CF80CF90CA9
:1009D000FA0CF70A0319F62C4E08D6005208D60670
:1009E000D61FF42CF817FA2CF813FA2CF701F8019B
:1009F000F901FA0108004D08B63CCD00FA014E0895
:100A0000D100CE170310CE0CCF0CD00CFA0CF90C81
:100A1000F80CF70CCD0B022DD11F192DF709F80991
:100A2000F909FA09F70A0319F80A0319F90A031967
:100A3000FA0A08000408C5004408C7000319392D44
:100A40004308D0004208CF004108CE004008CD0046
:100A5000D401D3012030D2008230D10086247A081C
:100A6000C3007908C2007808C1007708C000C70B2E
:100A7000202D4308D0004208CF004108CE00400896
:100A8000CD00FB247A08C3007908C2007808C100B1
:100A90007708C000C31F592DC503C516C009C10979
:100AA000C209C309C00A0319C10A0319C20A0319FA
:100AB000C30A3B30CC009A30CB00CA30CA00C9010F
:100AC0000A30C70044080319C50A83144030840063
:100AD00083134308D0004208CF004108CE004008ED
:100AE000CD004C08D4004B08D3004A08D200490876
:100AF000D1004F207808F708031D912D440A4702C2
:100B00000319912D45080319932D0F394702031935
:100B10008B2D0318C32DC51BC32D451B932D2030D2
:100B2000BF2D2030C505C51EA12DC5124408031DCB
:100B3000C5037708C5002D30CD008E224508F7008B
:100B4000C50144084702031DAF2D7708C5002E30AC
:100B5000CD008E224508F7002030C505003030302A
:100B6000C51EBF2DC5124408031DC5037708C50067
:100B70002D30CD008E224508F700C5013030F70733
:100B80007708CD008E2283104C08D0004B08CF0090
:100B90004A08CE004908CD00D401D301D2010A3061
:100BA000D1004F207A08CC007908CB007808CA0021
:100BB0007708C900C70B652D08000408C500440864
:100BC000C7000319FC2D4308D0004208CF0041089C
:100BD000CE004008CD00D401D3012030D2008230B5
:100BE000D10086247A08C3007908C2007808C100C1
:100BF0007708C000C70BE32D4308D0004208CF00A0
:100C00004108CE004008CD00FB247A08C3007908D3
:100C1000C2007808C1007708C000C31F1C2EC5039E
:100C2000C516C009C109C209C309C00A0319C10A0E
:100C30000319C20A0319C30A3B30CC009A30CB0017
:100C4000CA30CA00C9010A30C70044080319C50ADE
:100C500083144030840083134308D0004208CF003F
:100C60004108CE004008CD004C08D4004B08D3000A
:100C70004A08D2004908D1004F207808F708031D20
:100C8000542E440A47020319542E45080319562EC0
:100C90000F39470203194E2E03188A2EC51B8A2EC0
:100CA000451B562E2030852E2030C505C51E652ECD
:100CB000C5124408031DC5037708C5002D300C1E5E
:100CC0005F2E99004508F700C50144084702031D3F
:100CD000742E7708C5002E300C1E6C2E9900450826
:100CE000F7002030C50500303030C51E852EC512F6
:100CF0004408031DC5037708C5002D300C1E7E2E49
:100D000099004508F700C5013030F70777080C1E39
:100D1000872E990083104C08D0004B08CF004A085A
:100D2000CE004908CD00D401D301D2010A30D10050
:100D30004F207A08CC007908CB007808CA007708E1
:0C0D4000C900C70B282E8A150A12C72A0A
:1010000003081F3983000C3083169900A230980022
:101010009030831298000130A3000830A40083169A
:101020001F149F141F159F1107309C0083138312F8
:10103000A501A601A701AB01AA01A901A801AF0161
:10104000AE01AD01AC01B301B201B101B0018A1131
:101050009E208A157A08AF007908AE007808AD00A6
:101060007708AC004E30BC001030BD000230BE002E
:101070008A11EE298A150130BC008A114D2A8A1581
:101080008A11E4218A150230CE000130CF008A1186
:1010900057228A150C3003178D0000308F008A11FB
:1010A0000313B3228A150630CE000230CF008A1116
:1010B00057228A15143003178D0000308F008A11D3
:1010C0000313B3228A150C30BC00FA30CE008A110B
:1010D00019218A15BC0B65288A11E4218A1505306F
:1010E000CE000130CF008A1157228A15183003171D
:1010F0008D0000308F008A110313B3228A1504304B
:10110000BC00FA30CE008A1119218A15BC0B812847
:101110000230CE00CF008A1157228A151D300317E6
:101120008D0000308F008A110313B3228A150C3012
:10113000BC00FA30CE008A1119218A15BC0B9928FF
:101140008A119E208A157A08AB007908AA007808CF
:10115000A9007708A8002B082F02031CF228031D02
:10116000C1282A082E02031CF228031DC1282908C1
:101170002D02031CF228031DC12828082C02031C81
:10118000F22828082C02F7002D08F8002908031C73
:10119000290FF8022E08F9002A08031C2A0FF90269
:1011A0002F08FA002B08031C2B0FFA027A08BF0045
:1011B0007908BE007808BD007708BC008A110923B1
:1011C0008A157A08B7007908B6007808B50077085C
:1011D000B4003708B3003608B2003508B10034084F
:1011E000B00022292C082802F7002908F8002D0851
:1011F000031C2D0FF8022A08F9002E08031C2E0FDD
:10120000F9022B08FA002F08031C2F0FFA027A08A4
:10121000BF007908BE007808BD007708BC008A11BD
:1012200009238A157A08BB007908BA007808B90042
:101230007708B8003B08B3003A08B2003908B1009B
:101240003808B0003308BF003208BE003108BD00C6
:101250003008BC00C301B830C2002130C1008D305D
:10126000C0008A1124238A157A08BF007908BE00BD
:101270007808BD007708BC00C301C201C1018030FD
:10128000C0003F08C7003E08C6003D08C5003C0836
:10129000C4008A11EE2B8A15031C392AA708031DE6
:1012A000D9292608013C031C7929A60A8A11E421C0
:1012B0008A150130CE00CF008A1157228A152530B9
:1012C00003178D0000308F008A110313B3228A1593
:1012D0000630CE000230CF008A1157228A152E30F8
:1012E00003178D0000308F008A110313B3228A1573
:1012F000D9298A11E4218A150130CE00CF008A1144
:1013000057228A153308BF003208BE003108BD00DD
:101310003008BC00C301B830C2002130C1008D309C
:10132000C0008A1124238A157A08BF007908BE00FC
:101330007808BD007708BC00313003178D000030FD
:101340008F00031008300313C0008A112F248A1560
:10135000893084003F08C3003E08C2003D08C10038
:101360003C08C0000230C4008A111A258A152030BA
:10137000CD008A118E228A154B30CD008A118E2223
:101380008A156730CD008A118E228A150630CE006C
:101390000230CF008A1157228A15383003178D008A
:1013A00000308F008A110313B3228A15A601013081
:1013B000A700270B382A8A11E4218A150130CE00B4
:1013C000CF008A1157228A153308BF003208BE00A9
:1013D0003108BD003008BC00C301B830C200213064
:1013E000C1008D30C0008A1124238A157A08BF00FD
:1013F0007908BE007808BD007708BC003B300317B1
:101400008D0000308F00031008300313C0008A11D4
:101410002F248A15893084003F08C3003E08C2008B
:101420003D08C1003C08C0000230C4008A111A25E2
:101430008A152030CD008A118E228A154B30CD00BE
:101440008A118E228A156730CD008A118E228A1564
:101450000630CE000230CF008A1157228A15423062
:1014600003178D0000308F008A110313B3228A15F1
:101470009F2ADF30831687002030831287062708D3
:10148000013CA7008A11E4218A150130CE00CF006B
:101490008A1157228A153308BF003208BE0031086E
:1014A000BD003008BC00C301B830C2002130C1000B
:1014B0008D30C0008A1124238A157A08BF0079086C
:1014C000BE007808BD007708BC00453003178D00CA
:1014D00000308F00031008300313C0008A112F243E
:1014E0008A15893084003F08C3003E08C2003D08C9
:1014F000C1003C08C0000230C4008A111A258A15B8
:101500002030CD008A118E228A154B30CD008A11F1
:101510008E228A156730CD008A118E228A150630F8
:10152000CE000230CF008A1157228A154C300317A3
:101530008D0000308F008A110313B3228A153308FF
:10154000BF003208BE003108BD003008BC00C30136
:10155000B830C2002130C1008D30C0008A11242370
:101560008A157A08BF007908BE007808BD007708A0
:10157000BC00893084003F08C3003E08C2003D081B
:10158000C1003C08C0000230C4008A11DD2D8A155C
:101590000A300C1EC92A99000D300C1ECD2A990064
:0415A000A02863001C
:02400E003A3F37
:00000001FF
;PIC16F877A
;CRC=4B69  CREATED="20-Apr-21 00:26"
